{
  "_format": "hh-sol-artifact-1",
  "contractName": "McDonaldsApp",
  "sourceName": "contracts/McDonaldsApp.sol",
  "abi": [
    {
      "anonymous": false,
      "inputs": [
        {
          "indexed": false,
          "internalType": "address",
          "name": "applicant",
          "type": "address"
        }
      ],
      "name": "ApplicationReceived",
      "type": "event"
    },
    {
      "inputs": [
        {
          "internalType": "address",
          "name": "",
          "type": "address"
        }
      ],
      "name": "applicants",
      "outputs": [
        {
          "internalType": "bool",
          "name": "",
          "type": "bool"
        }
      ],
      "stateMutability": "view",
      "type": "function"
    },
    {
      "inputs": [],
      "name": "register",
      "outputs": [],
      "stateMutability": "nonpayable",
      "type": "function"
    }
  ],
  "bytecode": "0x608060405234801561001057600080fd5b50610242806100206000396000f3fe608060405234801561001057600080fd5b50600436106100365760003560e01c80631aa3a0081461003b578063ccd6686314610045575b600080fd5b610043610075565b005b61005f600480360381019061005a919061013a565b610105565b60405161006c919061019c565b60405180910390f35b60016000803373ffffffffffffffffffffffffffffffffffffffff1673ffffffffffffffffffffffffffffffffffffffff16815260200190815260200160002060006101000a81548160ff0219169083151502179055507f2c48c63cddda3401baf059c86785b121341e658b1ce5f878737be67f413ab23f336040516100fb9190610181565b60405180910390a1565b60006020528060005260406000206000915054906101000a900460ff1681565b600081359050610134816101f5565b92915050565b60006020828403121561014c57600080fd5b600061015a84828501610125565b91505092915050565b61016c816101b7565b82525050565b61017b816101c9565b82525050565b60006020820190506101966000830184610163565b92915050565b60006020820190506101b16000830184610172565b92915050565b60006101c2826101d5565b9050919050565b60008115159050919050565b600073ffffffffffffffffffffffffffffffffffffffff82169050919050565b6101fe816101b7565b811461020957600080fd5b5056fea264697066735822122087da626b9f91cb351ce458ff01a8ce11294146681773f61fb5ef23dfafb0463764736f6c63430008040033",
  "linkReferences": {},
  "deployedLinkReferences": {}
}